:100000000C9472000C948F000C948F000C948F0051
:100010000C948F000C948F000C948F000C948F0024
:100020000C948F000C94FF010C948F000C948F00A3
:100030000C948F000C948F000C948F000C948F0004
:100040000C948F000C948F000C948F000C948F00F4
:100050000C948F000C94B30F0C948F000C948F00B1
:100060000C948F000C948F000C948F000C948F00D4
:100070000C948F000C948F000C948F000C948F00C4
:100080000C948F000C948F000C948F000C948F00B4
:100090000C948F000C948F000C948F000C948F00A4
:1000A0000C948F000C948F000C948F000C948F0094
:1000B0000C948F000C948F000C948F000C948F0084
:1000C0000C948F000C948F000C948F000C948F0074
:1000D0000C948F000C948F000C948F000C948F0064
:1000E0000C948F0011241FBECFEFD1E2DEBFCDBF35
:1000F00012E0A0E0B2E0ECE6FFE102C005900D9254
:10010000AE31B107D9F72EE0AEE1B2E001C01D92E9
:10011000A03EB207E1F70E9491000C94B10F0C943D
:100120000000CF93DF93CDB7DEB70E94A7000E94F7
:10013000EF030E94FB0980E090E0DF91CF910895EA
:10014000CF93DF93CDB7DEB7DF91CF910895AF9214
:10015000BF92CF92DF92EF92FF920F93CF93DF93F4
:10016000CDB7DEB784E290E024E230E0F9012081EF
:100170002F7EFC01208388E690E028E630E0F9013C
:1001800020812160FC0120838BE690E02BE630E0AB
:10019000F90120812061FC0120838AE290E02AE2BB
:1001A00030E0F90120812460FC0120838AE290E0A4
:1001B0002AE230E0F90120812068FC0120838AE0F6
:1001C00091E02AE031E0F90120812064FC012083E4
:1001D0008DE290E02DE230E0F90120812260FC0107
:1001E00020838BE290E02BE230E0F90120812F7731
:1001F000FC01208385EC90E0FC01108284EC90E00F
:100200002FECFC01208382EC90E026E3FC012083AC
:1002100081EC90E028E0FC012083A12CB12CC12CC2
:10022000D12CE12CF12C03E020E030E045E550E05A
:1002300060E172E088E291E00E94CB08DF91CF910B
:100240000F91FF90EF90DF90CF90BF90AF90089507
:10025000CF93DF93CDB7DEB78BE091E02BE031E0B9
:10026000F901308120E42327FC01208380910902D9
:10027000893008F0BDC01092D70EB5C08091D70E5E
:10028000882F90E080509E4FFC018081803109F0E2
:10029000A5C08091D70E882F90E0880F991F880FF6
:1002A000991F825C9D4FFC012081318142815381E5
:1002B00080913A0290913B02A0913C02B0913D02A4
:1002C000281739074A075B0708F088C08BE290E0DF
:1002D0002BE230E0F90120812068FC01208300003E
:1002E00080EC90E0FC018081882F90E0807299275B
:1002F0000097B1F386EC90E027EFFC01208300002B
:1003000080EC90E0FC018081882F90E0807299273A
:100310000097B1F386EC90E027EFFC01208300000A
:1003200080EC90E0FC018081882F90E0807299271A
:100330000097B1F380916202882349F486EC90E043
:1003400021E0FC0120838FEF8093620207C086ECDE
:1003500090E021E8FC01208310926202000080EC12
:1003600090E0FC018081882F90E0807299270097AF
:10037000B1F386EC90E02091D70E222F30E0295D7A
:100380003D4FF9012081FC012083000080EC90E0CA
:10039000FC018081882F90E0807299270097B1F34B
:1003A00065E070E080E090E00E94AE098BE290E0B2
:1003B0002BE230E0F90120812F77FC01208380912E
:1003C000D70E882F90E02091D70E80509E4FFC01D1
:1003D0002083809109028F5F809309028091D70E5C
:1003E0008F5F8093D70E8091D70E893008F446CF67
:1003F00065E070E080E090E00E94AE092DCF1F9292
:100400000F9200905F000F921124EF92FF920F93D2
:100410001F932F933F934F935F936F937F938F938C
:100420009F93AF93BF93EF93FF93CF93DF93CDB79A
:10043000DEB72897DEBFCDBF83E290E0FC0180816C
:100440008B838B8180718C83809163029C8189274F
:100450008C838B818093630280916302807180938F
:1004600063028C81882F90E080719927009709F4AE
:100470007EC180910902882309F479C180916302C9
:10048000882F90E080719927009789F080913A0237
:1004900090913B02A0913C02B0913D028093D30E1B
:1004A0009093D40EA093D50EB093D60E60C1209138
:1004B0003A0230913B0240913C0250913D028091C2
:1004C000D30E9091D40EA091D50EB091D60E790195
:1004D0008A01E81AF90A0A0B1B0BD801C70180939D
:1004E000D30E9093D40EA093D50EB093D60E8091D8
:1004F000D30E9091D40EA091D50EB091D60E8093CC
:10050000DC0E9093DD0EA093DE0EB093DF0E809193
:10051000D30E9091D40EA091D50EB091D60EBC0101
:10052000CD010E949E0EDC01CB012CE53FE842EAA2
:100530005FE3BC01CD010E94040FDC01CB0180937D
:10054000D80E9093D90EA093DA0EB093DB0E809163
:10055000D80E9091D90EA091DA0EB091DB0EBC01AD
:10056000CD010E94720EDC01CB018093D30E9093DB
:10057000D40EA093D50EB093D60E8091D30E909149
:10058000D40EA091D50EB091D60E2FE930E040E008
:1005900050E0BC01CD010E948F0FDA01C901019624
:1005A000A11DB11D8093D30E9093D40EA093D50EB0
:1005B000B093D60E8091D30E9091D40EA091D50E0B
:1005C000B091D60E81309105A105B10561F482E0AC
:1005D00090E0A0E0B0E08093D30E9093D40EA0936F
:1005E000D50EB093D60E1A8226C08A81882F90E04D
:1005F00080509E4FFC0180818031D1F08A81882F0C
:1006000090E02A81222F30E020503E4FF9012081D6
:10061000805D9D4FFC0120838A81882F90E080506F
:100620009E4F20E1FC0120838A8189838AE08A83AE
:100630008A818F5F8A838A818930B8F28981282FE5
:1006400030E08091D30E9091D40EA091D50EB09150
:10065000D60E482FC901895D9D4FFC0140838091D2
:100660003902882321F0809139028130A1F58981F6
:10067000682F70E020913A0230913B0240913C0299
:1006800050913D028091DC0E9091DD0EA091DE0E26
:10069000B091DF0E79018A01E81AF90A0A0B1B0BE7
:1006A000D801C7018E56964FAF4FBF4F9B01220F07
:1006B000331F220F331F225C3D4FF901808391834A
:1006C000A283B3838981882F90E0825E9D4F21E0D1
:1006D000FC0120833BC080913902823021F080915F
:1006E0003902833099F58981682F70E020913A02B0
:1006F00030913B0240913C0250913D028091DC0ED2
:100700009091DD0EA091DE0EB091DF0E79018A018D
:10071000E81AF90A0A0B1B0BD801C7018E56964F2F
:10072000AF4FBF4F9B01220F331F220F331F225C9D
:100730003D4FF90180839183A283B3838981882F00
:1007400090E0825E9D4F22E0FC012083809139027F
:10075000833019F41092390205C0809139028F5FFD
:100760008093390280910902815080930902289672
:100770000FB6F894DEBF0FBECDBFDF91CF91FF91D2
:10078000EF91BF91AF919F918F917F916F915F9109
:100790004F913F912F911F910F91FF90EF900F90EC
:1007A00000925F000F901F901895CF93DF93CDB705
:1007B000DEB780913A0290913B02A0913C02B09149
:1007C0003D020196A11DB11D80933A0290933B0218
:1007D000A0933C02B0933D02DF91CF910895AF9278
:1007E000BF92CF92DF92EF92FF920F93CF93DF935E
:1007F000CDB7DEB78AE091E02AE031E0F90120814F
:100800002068FC0120838BE091E02BE031E0F901CE
:1008100020812068FC012083A12CB12CC12CD12C7B
:10082000E12CF12C01E020E030E045E550E064E10E
:1008300072E087E294E00E94CB08DF91CF910F91A4
:10084000FF90EF90DF90CF90BF90AF900895CF933F
:10085000DF93CDB7DEB780910A0290910B02CC01F5
:10086000A0E0B0E0BC01CD010E94AE098BE091E0B8
:100870002BE031E0F901308120E82327FC012083BF
:10088000EACFCF93DF9300D0CDB7DEB79A838983C9
:1008900089819A819C012D5F3F4F89819A81FC015A
:1008A0003283218329813A818FEF9FEFDC01F901A7
:1008B00083839483A583B68389819A819C012D5F6C
:1008C0003F4F89819A81FC013087278389819A81F2
:1008D0009C012D5F3F4F89819A81FC0132872187DE
:1008E00089819A81FC0110820F900F90DF91CF9146
:1008F0000895CF93DF9300D0CDB7DEB79A83898375
:1009000089819A81FC01138612860F900F90DF91E6
:10091000CF910895CF93DF9300D000D000D0CDB712
:10092000DEB79C838B837E836D838B819C81FC01EE
:10093000818192819A8389838D819E8129813A81E7
:10094000FC013583248389819A81FC0126813781CA
:100950008D819E81FC013783268389819A81FC01E8
:10096000868197812D813E81FC0135832483898195
:100970009A812D813E81FC01378326838D819E8162
:100980002B813C81FC01338722878B819C81FC0178
:10099000808121E0280F8B819C81FC012083269699
:1009A0000FB6F894DEBF0FBECDBFDF91CF91089593
:1009B000CF93DF93CDB7DEB72A970FB6F894DEBF9B
:1009C0000FBECDBF98878F837A87698789859A857F
:1009D000FC0180819181A281B3818B839C83AD8353
:1009E000BE838B819C81AD81BE818F3FFFEF9F07CE
:1009F000AF07BF0741F48F819885FC0181859285FF
:100A00009A83898320C08F81988503969A838983EE
:100A100007C089819A81FC01848195819A838983A9
:100A200089819A81FC0184819581FC012081318139
:100A3000428153818B819C81AD81BE818217930756
:100A4000A407B50730F789819A81FC01248135819B
:100A500089859A85FC013583248389859A85FC01E3
:100A60008481958129853A85FC0137832683898590
:100A70009A8529813A81FC013783268389819A816D
:100A800029853A85FC013583248389859A852F81C0
:100A90003885FC01338722878F819885FC0180810E
:100AA00021E0280F8F819885FC0120832A960FB6BC
:100AB000F894DEBF0FBECDBFDF91CF910895CF93E5
:100AC000DF9300D000D0CDB7DEB79C838B838B81C2
:100AD0009C81FC01828593859A8389838B819C818B
:100AE000FC01848195812B813C81F901268137812C
:100AF000FC01378326838B819C81FC018681978151
:100B00002B813C81F90124813581FC0135832483CB
:100B100089819A81FC01218132818B819C812817F6
:100B2000390751F48B819C81FC01268137818981B1
:100B30009A81FC01328321838B819C81FC01138685
:100B4000128689819A81FC0180812FEF280F89818B
:100B50009A81FC01208389819A81FC0180810F9018
:100B60000F900F900F90DF91CF910895CF93DF9367
:100B700000D000D0CDB7DEB79C838B831A82198258
:100B80000E94350A8091660E9091670E009731F4AD
:100B900085E692E09093670E8093660E2091640E36
:100BA0003091650E8B819C81820F931F8F3F2BE0CC
:100BB000920738F52091640E3091650E8B819C81EF
:100BC000280F391F8091640E9091650E821793074C
:100BD000C0F42091660E3091670E8091640E909162
:100BE000650E820F931F9A8389832091640E309142
:100BF000650E8B819C81820F931F9093650E80936D
:100C0000640E0E94410A89819A810F900F900F9083
:100C10000F90DF91CF910895CF93DF9300D0CDB7A0
:100C2000DEB79A8389830F900F90DF91CF9108955B
:100C3000CF93DF93CDB7DEB728970FB6F894DEBF1A
:100C40000FBECDBF9C838B837E836D8358874F837C
:100C50008B819C8121E1FC0120838B819C81019708
:100C60009C838B838B819C8122E2FC0120838B817E
:100C70009C8101979C838B838B819C8123E3FC0166
:100C800020838B819C8101979C838B838D819E81A6
:100C90009A83898329818B819C81FC0120838B81AC
:100CA0009C8101979C838B8389819A81892F9927C5
:100CB0009A83898329818B819C81FC0120838B818C
:100CC0009C8101979C838B838B819C81FC0110828A
:100CD0008B819C8101979C838B838B819C8120E8F5
:100CE000FC0120838B819C8101979C838B838B816A
:100CF0009C81FC0110828B819C8101979C838B835A
:100D00008B819C8122E0FC0120838B819C81019757
:100D10009C838B838B819C8123E0FC0120838B81CE
:100D20009C8101979C838B838B819C8124E0FC01B7
:100D300020838B819C8101979C838B838B819C81F9
:100D400025E0FC0120838B819C8101979C838B8310
:100D50008B819C8126E0FC0120838B819C81019703
:100D60009C838B838B819C8127E0FC0120838B817A
:100D70009C8101979C838B838B819C8128E0FC0163
:100D800020838B819C8101979C838B838B819C81A9
:100D900029E0FC0120838B819C8101979C838B83BC
:100DA0008B819C8120E1FC0120838B819C810197B8
:100DB0009C838B838B819C8121E1FC0120838B812F
:100DC0009C8101979C838B838B819C8122E1FC0118
:100DD00020838B819C8101979C838B838B819C8159
:100DE00023E1FC0120838B819C8101979C838B8371
:100DF0008B819C8124E1FC0120838B819C81019764
:100E00009C838B838B819C8125E1FC0120838B81DA
:100E10009C8101979C838B838B819C8126E1FC01C3
:100E200020838B819C8101979C838B838B819C8108
:100E300027E1FC0120838B819C8101979C838B831C
:100E40008B819C8128E1FC0120838B819C8101970F
:100E50009C838B838B819C8129E1FC0120838B8186
:100E60009C8101979C838B838B819C8120E2FC0178
:100E700020838B819C8101979C838B838B819C81B8
:100E800021E2FC0120838B819C8101979C838B83D1
:100E90008B819C8122E2FC0120838B819C810197C4
:100EA0009C838B838B819C8123E2FC0120838B813B
:100EB0009C8101979C838B838F8198859A838983FA
:100EC00029818B819C81FC0120838B819C810197EE
:100ED0009C838B8389819A81892F99279A8389831F
:100EE00029818B819C81FC0120838B819C810197CE
:100EF0009C838B838B819C8126E2FC0120838B81E8
:100F00009C8101979C838B838B819C8127E2FC01D0
:100F100020838B819C8101979C838B838B819C8117
:100F200028E2FC0120838B819C8101979C838B8329
:100F30008B819C8129E2FC0120838B819C8101971C
:100F40009C838B838B819C8120E3FC0120838B819C
:100F50009C8101979C838B838B819C8121E3FC0185
:100F600020838B819C8101979C838B838B819C81C7
:100F700028960FB6F894DEBF0FBECDBFDF91CF919C
:100F80000895CF93DF93CDB7DEB70E94AC08A09150
:100F9000680EB091690ECD91CDBFDD91DEBFFF919E
:100FA000EF91DF91CF91BF91AF919F918F917F9101
:100FB0006F915F914F913F912F911F910F91FF90F2
:100FC000EF90DF90CF90BF90AF909F908F907F90E9
:100FD0006F905F904F903F902F901F900F900FBE9B
:100FE0000F90089581E0DF91CF9108950F920FB691
:100FF000F8940F921F9211242F923F924F925F927A
:101000006F927F928F929F92AF92BF92CF92DF9218
:10101000EF92FF920F931F932F933F934F935F9302
:101020006F937F938F939F93AF93BF93CF93DF93F0
:10103000EF93FF93A091680EB091690E0DB60D92DB
:101040000EB60D920E94ED0BA091680EB091690E44
:10105000CD91CDBFDD91DEBFFF91EF91DF91CF91BB
:10106000BF91AF919F918F917F916F915F914F91C0
:101070003F912F911F910F91FF90EF90DF90CF90B4
:10108000BF90AF909F908F907F906F905F904F90A8
:101090003F902F901F900F900FBE0F9008950F92CA
:1010A0000FB6F8940F921F9211242F923F924F92F5
:1010B0005F926F927F928F929F92AF92BF92CF92E8
:1010C000DF92EF92FF920F931F932F933F934F93D3
:1010D0005F936F937F938F939F93AF93BF93CF93C0
:1010E000DF93EF93FF93A091680EB091690E0DB658
:1010F0000D920EB60D920E94CC0A882311F00E9428
:10110000ED0BA091680EB091690ECD91CDBFDD9130
:10111000DEBFFF91EF91DF91CF91BF91AF919F9192
:101120008F917F916F915F914F913F912F911F917F
:101130000F91FF90EF90DF90CF90BF90AF909F9076
:101140008F907F906F905F904F903F902F901F9067
:101150000F900FBE0F900895CF93DF93CDB7DEB7FA
:1011600086E490E0FC01108287E490E029EFFC0126
:10117000208384E490E022E0FC01208385E490E079
:1011800023E0FC0120838EE690E022E0FC01208336
:10119000DF91CF910895AF92BF92CF92DF92EF92FD
:1011A000FF920F931F93CF93DF93CDB7DEB7649772
:1011B0000FB6F894DEBF0FBECDBF9F838E837987B5
:1011C00068875B874A873D872C870E87F88AEF867A
:1011D000DA8AC98ABC8AAB8A29893A898A859B8539
:1011E000B9010E94DF0D9B838A838A819B810097CE
:1011F00009F48EC08A819B81FC01238D348D8A8500
:101200009B850197820F931F9D838C834A855B8505
:101210002B893C89688579858A819B818A014E85E5
:101220000E94680C4C855D852E813F818C819D815B
:10123000B9010E9418069C018A819B81FC013183BF
:1012400020838F859889009739F08F8598892A8126
:101250003B81FC01318320830FB6F8940F9280917B
:10126000C70E8F5F8093C70E8091680E9091690EB4
:10127000009769F48A819B819093690E8093680E30
:101280008091C70E8130B1F40E94FC0C13C0809194
:10129000CD0E882379F48091680E9091690EFC013F
:1012A000928D8E85891730F08A819B819093690E8B
:1012B0008093680E8091D10E8F5F8093D10E8A81CA
:1012C0009B81FC01928D8091CC0E891730F48A812C
:1012D0009B81FC01828D8093CC0E8A819B819C0135
:1012E0002E5F3F4F8A819B81FC01828D482F50E009
:1012F0006BE0649FC001659F900D11248659914F4A
:10130000B9010E948A0481E089830F900FBE02C058
:101310008FEF89838981813079F48091CD0E882384
:1013200059F08091680E9091690EFC01928D8E8526
:10133000981710F40E94F607898164960FB6F89406
:10134000DEBF0FBECDBFDF91CF911F910F91FF90F8
:10135000EF90DF90CF90BF90AF900895CF93DF9341
:10136000CDB7DEB729970FB6F894DEBF0FBECDBF5D
:101370006E837F838887998719828E819F81A88554
:10138000B9850097A105B10541F10E94350A209168
:10139000C80E3091C90E4091CA0E5091CB0E8E816D
:1013A0009F81A885B985820F931FA41FB51F8A83CB
:1013B0009B83AC83BD838091680E9091690E0296E9
:1013C0000E945F058A819B81AC81BD81BC01CD01FA
:1013D0000E94760D0E94410A89838981882311F435
:1013E0000E94F60729960FB6F894DEBF0FBECDBF58
:1013F000DF91CF910895AF92BF92CF92DF92EF929B
:10140000FF920F93CF93DF931F92CDB7DEB7A12C3E
:10141000B12CC12CD12CE12CF12C00E020E030E0EB
:1014200045E550E069E172E086E59CE00E94CB086A
:1014300089838981813071F4F89481E08093CD0EA5
:101440001092C80E1092C90E1092CA0E1092CB0EB6
:101450000E94C1070F90DF91CF910F91FF90EF9005
:10146000DF90CF90BF90AF900895CF93DF93CDB72B
:10147000DEB78091D20E8F5F8093D20EDF91CF9135
:101480000895CF93DF9300D01F92CDB7DEB71982B6
:101490000FB6F8940F928091D20E81508093D20EA5
:1014A0008091D20E882309F06EC08091C70E8823E8
:1014B00009F469C046C08091B70E9091B80EFC0146
:1014C000808591859B838A838A819B810E960E9469
:1014D0005F058A819B8102960E945F058A819B81BC
:1014E000FC01928D8091CC0E891730F48A819B810A
:1014F000FC01828D8093CC0E8A819B819C012E5FA2
:101500003F4F8A819B81FC01828D482F50E06BE028
:10151000649FC001659F900D11248659914FB901B8
:101520000E948A048A819B81FC01228D8091680E31
:101530009091690EFC01828D281718F081E080934C
:10154000CF0E8091B00E882309F0B5CF8091CE0EDA
:10155000882389F00CC00E94CC0A882319F081E00E
:101560008093CF0E8091CE0E81508093CE0E8091CD
:10157000CE0E882381F78091CF0E813021F481E057
:1015800089830E94F6070F900FBE89810F900F90FC
:101590000F90DF91CF910895CF93DF93CDB7DEB752
:1015A0002D970FB6F894DEBF0FBECDBF1982809184
:1015B000D20E882309F0FAC08091C80E9091C90E0E
:1015C000A091CA0EB091CB0E0196A11DB11D8093C2
:1015D000C80E9093C90EA093CA0EB093CB0E809103
:1015E000C80E9091C90EA091CA0EB091CB0E8A83FD
:1015F0009B83AC83BD838A819B81AC81BD81009735
:10160000A105B105D9F48091AC0E9091AD0E9F83E8
:101610008E838091AE0E9091AF0E9093AD0E80931D
:10162000AC0E8E819F819093AF0E8093AE0E809111
:10163000D00E8F5F8093D00E0E94390E80910C02E5
:1016400090910D02A0910E02B0910F022A813B8170
:101650004C815D81281739074A075B0708F489C068
:101660008091AC0E9091AD0EFC018081882361F4D5
:101670008FEF9FEFDC0180930C0290930D02A093FB
:101680000E02B0930F0275C08091AC0E9091AD0E1A
:10169000FC0187819085FC018085918599878887E9
:1016A00088859985FC0182819381A481B5818A878F
:1016B0009B87AC87BD872A813B814C815D818A8570
:1016C0009B85AC85BD85281739074A075B0768F4F9
:1016D0008A859B85AC85BD8580930C0290930D0215
:1016E000A0930E02B0930F0244C08885998502969C
:1016F0000E945F0588859985FC01808D918D0097FA
:1017000029F0888599850E960E945F0588859985C0
:10171000FC01928D8091CC0E891730F488859985D3
:10172000FC01828D8093CC0E888599859C012E5F6B
:101730003F4F88859985FC01828D482F50E06BE0F2
:10174000649FC001659F900D11248659914FB90186
:101750000E948A0488859985FC01228D8091680EFB
:101760009091690EFC01828D281710F081E0898329
:1017700077CF8091680E9091690EFC01828D282FA1
:1017800030E04BE0429FC001439F900D11248659E9
:10179000914FFC018081823010F081E0898380913B
:1017A000CE0E882351F40E94D50307C08091CE0E3F
:1017B0008F5F8093CE0E0E94D5038091CF0E882339
:1017C00011F081E0898389812D960FB6F894DEBFF0
:1017D0000FBECDBFDF91CF910895CF93DF9300D09F
:1017E000CDB7DEB78091D20E882321F081E08093BF
:1017F000CF0E57C01092CF0E05C08091CC0E8150F5
:101800008093CC0E8091CC0E282F30E04BE0429F8D
:10181000C001439F900D11248659914FFC01808196
:10182000882359F38091CC0E282F30E04BE0429F63
:10183000C001439F900D11248659914F9A8389834B
:1018400089819A81FC0181819281FC012481358109
:1018500089819A81FC013283218389819A81FC01EB
:101860002181328189819A8103962817390769F489
:1018700089819A81FC0181819281FC0124813581D9
:1018800089819A81FC013283218389819A81FC01BB
:1018900081819281FC01808591859093690E80936E
:1018A000680E0F900F90DF91CF910895CF93DF9343
:1018B00000D0CDB7DEB79A8389830E94360D809120
:1018C0006A0E823010F00E94F6070E94A000F5CF49
:1018D000EF92FF920F931F93CF93DF93CDB7DEB7B5
:1018E0002A970FB6F894DEBF0FBECDBF9B838A83C5
:1018F0007D836C834E8338872F831A8709871982EB
:1019000022C08981882F90E02981222F30E04C81EC
:101910005D81240F351FF90140812A813B81820FAF
:10192000931F4D96FC0140838981882F90E02C8184
:101930003D81820F931FFC018081882309F406C03A
:1019400089818F5F898389818430D8F28A819B81E4
:10195000FC0110A28E81843010F083E08E838A8196
:101960009B812E81FC01228F8A819B8102960E949D
:1019700079048A819B810E960E9479048A819B81D9
:101980002A813B81FC01338722878E81882F90E05A
:10199000A0E0B0E024E030E040E050E079018A01CE
:1019A000E81AF90A0A0B1B0BD801C7012A813B81EF
:1019B000F90186879787A08BB18B8A819B812A81C9
:1019C0003B81FC01378B268B8A819B81FC0111A214
:1019D00012A213A214A28A819B81FC0115A22A964D
:1019E0000FB6F894DEBF0FBECDBFDF91CF911F9130
:1019F0000F91FF90EF900895CF93DF931F92CDB793
:101A0000DEB7198210C08981282F30E04BE0429F59
:101A1000C001439F900D11248659914F0E944104AB
:101A200089818F5F89838981843068F386E99EE0AC
:101A30000E94410481EA9EE00E94410480EB9EE006
:101A40000E9441048BEB9EE00E94410486E99EE0E7
:101A50009093AD0E8093AC0E81EA9EE09093AF0E12
:101A60008093AE0E0F90DF91CF910895CF93DF93C7
:101A700000D01F92CDB7DEB72FC00E94350A9091DB
:101A8000BB0E81E0992309F080E089830E94410A1E
:101A90008981882309F50FB6F8940F928091C20EC0
:101AA0009091C30EFC01808591859B838A838A81F6
:101AB0009B8102960E945F058091C70E81508093A2
:101AC000C70E8091C60E81508093C60E0F900FBE38
:101AD0008A819B810E94220E8091C60E882369F61E
:101AE0000F900F900F90DF91CF910895CF93DF93D8
:101AF00000D000D0CDB7DEB769837A838B839C8317
:101B00002091680E3091690E89819A81AB81BC81E8
:101B1000F90182839383A483B5838091C80E909149
:101B2000C90EA091CA0EB091CB0E29813A814B818A
:101B30005C81281739074A075B0778F48091680EA3
:101B40009091690E9C012E5F3F4F8091AE0E909157
:101B5000AF0EB9010E94D8042BC08091680E9091FD
:101B6000690E9C012E5F3F4F8091AC0E9091AD0E9F
:101B7000B9010E94D80480910C0290910D02A091AD
:101B80000E02B0910F0229813A814B815C812817A6
:101B900039074A075B0760F489819A81AB81BC8170
:101BA00080930C0290930D02A0930E02B0930F024B
:101BB0000F900F900F900F90DF91CF910895CF93DA
:101BC000DF93CDB7DEB728970FB6F894DEBF0FBE10
:101BD000CDBF9E838D8378876F838F819885009793
:101BE00029F48D819E810E94B60502C08F8198855F
:101BF0009C838B838B819C810097B9F086E290E077
:101C00000E94B6059A83898389819A81009741F061
:101C100089819A812B813C81FC01348F238F07C0FD
:101C20008B819C810E940C0602C01A8219828981D4
:101C30009A8128960FB6F894DEBF0FBECDBFDF9114
:101C4000CF910895CF93DF9300D0CDB7DEB79A83BD
:101C5000898389819A81FC01838D948D0E940C0671
:101C600089819A810E940C060F900F90DF91CF918D
:101C70000895CF93DF9300D0CDB7DEB78091AC0E3F
:101C80009091AD0EFC018081882361F48FEF9FEF6E
:101C9000DC0180930C0290930D02A0930E02B0938E
:101CA0000F021BC08091AC0E9091AD0EFC0187819C
:101CB0009085FC01808591859A83898389819A81A9
:101CC000FC0182819381A481B58180930C02909361
:101CD0000D02A0930E02B0930F020F900F90DF91B0
:101CE000CF91089570D088F09F5790F0B92F992721
:101CF000B751A0F0D1F0660F771F881F991F1AF017
:101D0000BA95C9F712C0B13081F077D0B1E008952B
:101D100074C0672F782F8827B85F39F0B93FCCF3AC
:101D2000869577956795B395D9F73EF4909580950C
:101D3000709561957F4F8F4F9F4F0895E89409C02C
:101D400097FB3EF490958095709561957F4F8F4FEE
:101D50009F4F9923A9F0F92F96E9BB279395F69504
:101D6000879577956795B795F111F8CFFAF4BB0F82
:101D700011F460FF1BC06F5F7F4F8F4F9F4F16C0E6
:101D8000882311F096E911C0772321F09EE8872F70
:101D9000762F05C0662371F096E8862F70E060E02C
:101DA0002AF09A95660F771F881FDAF7880F9695A5
:101DB000879597F9089557FD9058440F551F59F08E
:101DC0005F3F71F04795880F97FB991F61F09F3F28
:101DD00079F087950895121613061406551FF2CF51
:101DE0004695F1DF08C0161617061806991FF1CFA1
:101DF00086957105610508940895E894BB276627C8
:101E00007727CB0197F908950BD078C069D028F0D7
:101E10006ED018F0952309F05AC05FC01124EECFA0
:101E2000CADFA0F3959FD1F3950F50E0551F629F35
:101E3000F001729FBB27F00DB11D639FAA27F00D23
:101E4000B11DAA1F649F6627B00DA11D661F829F4A
:101E50002227B00DA11D621F739FB00DA11D621F2F
:101E6000839FA00D611D221F749F3327A00D611D4C
:101E7000231F849F600D211D822F762F6A2F11242E
:101E80009F5750408AF0E1F088234AF0EE0FFF1F81
:101E9000BB1F661F771F881F91505040A9F79E3FB8
:101EA000510570F014C0AACF5F3FECF3983EDCF30D
:101EB000869577956795B795F795E7959F5FC1F7F5
:101EC000FE2B880F911D9695879597F9089597F9A0
:101ED0009F6780E870E060E008959FEF80EC0895D0
:101EE00000240A94161617061806090608950024F9
:101EF0000A9412161306140605060895092E039473
:101F0000000C11F4882352F0BB0F40F4BF2B11F4E6
:101F100060FF04C06F5F7F4F8F4F9F4F0895A1E216
:101F20001A2EAA1BBB1BFD010DC0AA1FBB1FEE1F53
:101F3000FF1FA217B307E407F50720F0A21BB30B9E
:101F4000E40BF50B661F771F881F991F1A9469F71A
:101F500060957095809590959B01AC01BD01CF0176
:061F60000895F894FFCF84
:061F66000E944F081895CF
:101F6C0000010203040506070809FA00FFFFFFFF42
:0E1F7C0044697600426C696E0049444C450091
:00000001FF
